{
  "contractName": "Lottery",
  "abi": [
    {
      "constant": true,
      "inputs": [],
      "name": "ticketPrice",
      "outputs": [
        {
          "name": "",
          "type": "uint256"
        }
      ],
      "payable": false,
      "stateMutability": "view",
      "type": "function"
    },
    {
      "constant": true,
      "inputs": [],
      "name": "manager",
      "outputs": [
        {
          "name": "",
          "type": "address"
        }
      ],
      "payable": false,
      "stateMutability": "view",
      "type": "function"
    },
    {
      "constant": true,
      "inputs": [],
      "name": "extractionNo",
      "outputs": [
        {
          "name": "",
          "type": "uint256"
        }
      ],
      "payable": false,
      "stateMutability": "view",
      "type": "function"
    },
    {
      "inputs": [
        {
          "name": "maiaTokenAddress",
          "type": "address"
        }
      ],
      "payable": false,
      "stateMutability": "nonpayable",
      "type": "constructor"
    },
    {
      "anonymous": false,
      "inputs": [],
      "name": "NoEntries",
      "type": "event"
    },
    {
      "anonymous": false,
      "inputs": [
        {
          "components": [
            {
              "name": "totalPrize",
              "type": "uint256"
            },
            {
              "name": "winningNumbers",
              "type": "uint8[]"
            },
            {
              "name": "winners",
              "type": "uint256"
            }
          ],
          "indexed": false,
          "name": "",
          "type": "tuple"
        }
      ],
      "name": "Winners",
      "type": "event"
    },
    {
      "anonymous": false,
      "inputs": [
        {
          "indexed": false,
          "name": "",
          "type": "uint256"
        }
      ],
      "name": "NewEntry",
      "type": "event"
    },
    {
      "constant": true,
      "inputs": [
        {
          "name": "input",
          "type": "string"
        }
      ],
      "name": "test_getKacAbiEncode",
      "outputs": [
        {
          "name": "",
          "type": "bytes32"
        }
      ],
      "payable": false,
      "stateMutability": "pure",
      "type": "function"
    },
    {
      "constant": true,
      "inputs": [],
      "name": "test_getWinnerHash",
      "outputs": [
        {
          "name": "",
          "type": "bytes32"
        }
      ],
      "payable": false,
      "stateMutability": "view",
      "type": "function"
    },
    {
      "constant": true,
      "inputs": [],
      "name": "test_getAmountWinnedByEveryPlayer",
      "outputs": [
        {
          "name": "",
          "type": "uint256"
        }
      ],
      "payable": false,
      "stateMutability": "view",
      "type": "function"
    },
    {
      "constant": true,
      "inputs": [],
      "name": "getLotteryEntries",
      "outputs": [
        {
          "name": "",
          "type": "address[]"
        }
      ],
      "payable": false,
      "stateMutability": "view",
      "type": "function"
    },
    {
      "constant": false,
      "inputs": [],
      "name": "approveLottery",
      "outputs": [],
      "payable": true,
      "stateMutability": "payable",
      "type": "function"
    },
    {
      "constant": true,
      "inputs": [
        {
          "name": "user",
          "type": "address"
        }
      ],
      "name": "getApprovedLotteryValue",
      "outputs": [
        {
          "name": "",
          "type": "uint256"
        }
      ],
      "payable": false,
      "stateMutability": "view",
      "type": "function"
    },
    {
      "constant": false,
      "inputs": [
        {
          "name": "entryHash",
          "type": "bytes32"
        }
      ],
      "name": "enterLottery",
      "outputs": [],
      "payable": true,
      "stateMutability": "payable",
      "type": "function"
    },
    {
      "constant": false,
      "inputs": [],
      "name": "pickWinner",
      "outputs": [],
      "payable": false,
      "stateMutability": "nonpayable",
      "type": "function"
    },
    {
      "constant": true,
      "inputs": [],
      "name": "getEntriesForCurrentExtraction",
      "outputs": [
        {
          "name": "",
          "type": "uint256"
        }
      ],
      "payable": false,
      "stateMutability": "view",
      "type": "function"
    },
    {
      "constant": true,
      "inputs": [],
      "name": "getBalance",
      "outputs": [
        {
          "name": "",
          "type": "uint256"
        }
      ],
      "payable": false,
      "stateMutability": "view",
      "type": "function"
    },
    {
      "constant": true,
      "inputs": [],
      "name": "getLast5Winnings",
      "outputs": [
        {
          "components": [
            {
              "name": "totalPrize",
              "type": "uint256"
            },
            {
              "name": "winningNumbers",
              "type": "uint8[]"
            },
            {
              "name": "winners",
              "type": "uint256"
            }
          ],
          "name": "",
          "type": "tuple[]"
        }
      ],
      "payable": false,
      "stateMutability": "view",
      "type": "function"
    }
  ],
  "bytecode": "0x60806040523480156200001157600080fd5b506040516020806200294c833981018060405262000033919081019062000118565b336000806101000a81548173ffffffffffffffffffffffffffffffffffffffff021916908373ffffffffffffffffffffffffffffffffffffffff160217905550600060058190555060068060006101000a81548160ff021916908360ff1602179055506031600660016101000a81548160ff021916908360ff160217905550606460048190555080600660026101000a81548173ffffffffffffffffffffffffffffffffffffffff021916908373ffffffffffffffffffffffffffffffffffffffff1602179055505062000178565b600062000110825162000164565b905092915050565b6000602082840312156200012b57600080fd5b60006200013b8482850162000102565b91505092915050565b600073ffffffffffffffffffffffffffffffffffffffff82169050919050565b6000620001718262000144565b9050919050565b6127c480620001886000396000f3fe6080604052600436106100d0576000357c0100000000000000000000000000000000000000000000000000000000900463ffffffff16806307487562146100d55780630d4056ca1461011257806312065fe01461012e5780631209b1f61461015957806332ee252a14610184578063481c6a75146101af5780635d495aea146101da578063808a8c9c146101f1578063838bc16d1461021c5780638b9c90221461025957806395db9baa14610284578063b3a55a66146102af578063d6145c25146102da578063dcf5575b14610305575b600080fd5b3480156100e157600080fd5b506100fc60048036036100f79190810190611a64565b61030f565b604051610109919061221e565b60405180910390f35b61012c60048036036101279190810190611ab6565b6103e1565b005b34801561013a57600080fd5b5061014361069b565b604051610150919061221e565b60405180910390f35b34801561016557600080fd5b5061016e610715565b60405161017b919061221e565b60405180910390f35b34801561019057600080fd5b5061019961071b565b6040516101a6919061221e565b60405180910390f35b3480156101bb57600080fd5b506101c4610738565b6040516101d191906120d0565b60405180910390f35b3480156101e657600080fd5b506101ef61075d565b005b3480156101fd57600080fd5b50610206610c3b565b604051610213919061221e565b60405180910390f35b34801561022857600080fd5b50610243600480360361023e9190810190611adf565b610c41565b60405161025091906121e1565b60405180910390f35b34801561026557600080fd5b5061026e610cbe565b60405161027b91906121bf565b60405180910390f35b34801561029057600080fd5b50610299610e16565b6040516102a691906121e1565b60405180910390f35b3480156102bb57600080fd5b506102c4610f86565b6040516102d1919061219d565b60405180910390f35b3480156102e657600080fd5b506102ef611061565b6040516102fc919061221e565b60405180910390f35b61030d6110ed565b005b6000600660029054906101000a900473ffffffffffffffffffffffffffffffffffffffff1673ffffffffffffffffffffffffffffffffffffffff1663dd62ed3e83306040518363ffffffff167c010000000000000000000000000000000000000000000000000000000002815260040161038a92919061214b565b60206040518083038186803b1580156103a257600080fd5b505afa1580156103b6573d6000803e3d6000fd5b505050506040513d601f19601f820116820180604052506103da9190810190611b20565b9050919050565b6000600660029054906101000a900473ffffffffffffffffffffffffffffffffffffffff1673ffffffffffffffffffffffffffffffffffffffff1663dd62ed3e33306040518363ffffffff167c010000000000000000000000000000000000000000000000000000000002815260040161045c9291906120eb565b60206040518083038186803b15801561047457600080fd5b505afa158015610488573d6000803e3d6000fd5b505050506040513d601f19601f820116820180604052506104ac9190810190611b20565b905060045481101515156104bf57600080fd5b600160026000600554815260200190815260200160002054016002600060055481526020019081526020016000208190555060016000600554815260200190815260200160002060008381526020019081526020016000203390806001815401808255809150509060018203906000526020600020016000909192909190916101000a81548173ffffffffffffffffffffffffffffffffffffffff021916908373ffffffffffffffffffffffffffffffffffffffff16021790555050600660029054906101000a900473ffffffffffffffffffffffffffffffffffffffff1673ffffffffffffffffffffffffffffffffffffffff166323b872dd33306004546040518463ffffffff167c01000000000000000000000000000000000000000000000000000000000281526004016105f893929190612114565b602060405180830381600087803b15801561061257600080fd5b505af1158015610626573d6000803e3d6000fd5b505050506040513d601f19601f8201168201806040525061064a9190810190611a8d565b507f9784cddb81f16b16cc2f8fe4003dfe483b96f22e0a1b028e6c120046df327df36002600060055481526020019081526020016000205460405161068f919061221e565b60405180910390a15050565b60008060009054906101000a900473ffffffffffffffffffffffffffffffffffffffff1673ffffffffffffffffffffffffffffffffffffffff163373ffffffffffffffffffffffffffffffffffffffff161415156106f857600080fd5b3073ffffffffffffffffffffffffffffffffffffffff1631905090565b60045481565b600060026000600554815260200190815260200160002054905090565b6000809054906101000a900473ffffffffffffffffffffffffffffffffffffffff1681565b6000809054906101000a900473ffffffffffffffffffffffffffffffffffffffff1673ffffffffffffffffffffffffffffffffffffffff163373ffffffffffffffffffffffffffffffffffffffff161415156107b857600080fd5b6000600660029054906101000a900473ffffffffffffffffffffffffffffffffffffffff1673ffffffffffffffffffffffffffffffffffffffff166370a08231306040518263ffffffff167c010000000000000000000000000000000000000000000000000000000002815260040161083191906120d0565b60206040518083038186803b15801561084957600080fd5b505afa15801561085d573d6000803e3d6000fd5b505050506040513d601f19601f820116820180604052506108819190810190611b20565b905060008114156108bd577f95b0d1da4fdb3b34c2b478332abb3600140f009023850e315734760a81aa597c60405160405180910390a1610c38565b60606108c76111bd565b9050606060008090505b600660009054906101000a900460ff1660ff168160ff1610156109245761091582848360ff1681518110151561090357fe5b9060200190602002015160ff1661146b565b915080806001019150506108d1565b506000816040516020018082805190602001908083835b602083101515610960578051825260208201915060208101905060208303925061093b565b6001836020036101000a0380198251168184511680821785525050505050509050019150506040516020818303038152906040528051906020012090506000600160006005548152602001908152602001600020600083815260200190815260200160002080549050905060606040519081016040528086815260200185815260200182815250600360006005548152602001908152602001600020600082015181600001556020820151816001019080519060200190610a229291906118c5565b50604082015181600201559050506000811115610bd757600081600660029054906101000a900473ffffffffffffffffffffffffffffffffffffffff1673ffffffffffffffffffffffffffffffffffffffff166370a08231306040518263ffffffff167c0100000000000000000000000000000000000000000000000000000000028152600401610ab391906120d0565b60206040518083038186803b158015610acb57600080fd5b505afa158015610adf573d6000803e3d6000fd5b505050506040513d601f19601f82011682018060405250610b039190810190611b20565b811515610b0c57fe5b04905060008090505b828160ff161015610bd45760016000600554815260200190815260200160002060008581526020019081526020016000208160ff16815481101515610b5657fe5b9060005260206000200160009054906101000a900473ffffffffffffffffffffffffffffffffffffffff1673ffffffffffffffffffffffffffffffffffffffff166108fc839081150290604051600060405180830381858888f19350505050158015610bc6573d6000803e3d6000fd5b508080600101915050610b15565b50505b7f0bd0ecd529680b7cde48303c5745486ee1560c1f19940fadc2e5e43d85111158600360006005548152602001908152602001600020604051610c1a91906121fc565b60405180910390a16001600560008282540192505081905550505050505b50565b60055481565b6000816040516020018082805190602001908083835b602083101515610c7c5780518252602082019150602081019050602083039250610c57565b6001836020036101000a038019825116818451168082178552505050505050905001915050604051602081830303815290604052805190602001209050919050565b606080600554604051908082528060200260200182016040528015610cfd57816020015b610cea61196c565b815260200190600190039081610ce25790505b50905060006005541415610d145780915050610e13565b600060016005540390505b600580540381101515610e0d5760036000828152602001908152602001600020606060405190810160405290816000820154815260200160018201805480602002602001604051908101604052809291908181526020018280548015610dca57602002820191906000526020600020906000905b82829054906101000a900460ff1660ff1681526020019060010190602082600001049283019260010382029150808411610d935790505b50505050508152602001600282015481525050828260016005540303815181101515610df257fe5b90602001906020020181905250808060019003915050610d1f565b50809150505b90565b60006060600660009054906101000a900460ff1660ff16604051908082528060200260200182016040528015610e5b5781602001602082028038833980820191505090505b50905060008090505b60068160ff161015610ea85760018101828260ff16815181101515610e8557fe5b9060200190602002019060ff16908160ff16815250508080600101915050610e64565b50606060008090505b600660009054906101000a900460ff1660ff168160ff161015610f0457610ef582848360ff16815181101515610ee357fe5b9060200190602002015160ff1661146b565b91508080600101915050610eb1565b506000816040516020018082805190602001908083835b602083101515610f405780518252602082019150602081019050602083039250610f1b565b6001836020036101000a03801982511681845116808217855250505050505090500191505060405160208183030381529060405280519060200120905080935050505090565b606060007fc888c9ce9e098d5864d3ded6ebcc140a12142263bace3a23a36f9905f12bd64a6001029050600160006005548152602001908152602001600020600082815260200190815260200160002080548060200260200160405190810160405280929190818152602001828054801561105657602002820191906000526020600020905b8160009054906101000a900473ffffffffffffffffffffffffffffffffffffffff1673ffffffffffffffffffffffffffffffffffffffff168152602001906001019080831161100c575b505050505091505090565b6000807fc888c9ce9e098d5864d3ded6ebcc140a12142263bace3a23a36f9905f12bd64a60010290506000600160006005548152602001908152602001600020600083815260200190815260200160002080549050905060008114156110cc576001925050506110ea565b6000816110d761069b565b8115156110e057fe5b0490508093505050505b90565b600660029054906101000a900473ffffffffffffffffffffffffffffffffffffffff1673ffffffffffffffffffffffffffffffffffffffff1663095ea7b3306004546040518363ffffffff167c0100000000000000000000000000000000000000000000000000000000028152600401611168929190612174565b602060405180830381600087803b15801561118257600080fd5b505af1158015611196573d6000803e3d6000fd5b505050506040513d601f19601f820116820180604052506111ba9190810190611a8d565b50565b60608060326040519080825280602002602001820160405280156111f05781602001602082028038833980820191505090505b50905060008090505b600660019054906101000a900460ff1660ff168160ff16101561124a576000828260ff1681518110151561122957fe5b906020019060200201901515908115158152505080806001019150506111f9565b5060004290506060600660009054906101000a900460ff1660ff166040519080825280602002602001820160405280156112935781602001602082028038833980820191505090505b50905060006001600660019054906101000a900460ff1660ff166112b685611709565b8115156112bf57fe5b060190506001848260ff168151811015156112d657fe5b9060200190602002019015159081151581525050808260008151811015156112fa57fe5b9060200190602002019060ff16908160ff16815250506000600190505b600660009054906101000a900460ff1660ff168160ff161015611450575b60011515858360ff1681518110151561134a57fe5b90602001906020020151151514156113ac576001600660019054906101000a900460ff1660ff1661139a856001850360ff1681518110151561138857fe5b9060200190602002015160ff16611709565b8115156113a357fe5b06019150611335565b6001600660019054906101000a900460ff1660ff166113ea856001850360ff168151811015156113d857fe5b9060200190602002015160ff16611709565b8115156113f357fe5b0601838260ff1681518110151561140657fe5b9060200190602002019060ff16908160ff16815250506001858360ff1681518110151561142f57fe5b90602001906020020190151590811515815250508080600101915050611317565b50611461826000600185510361174d565b8194505050505090565b60606000606490506060816040519080825280601f01601f1916602001820160405280156114a85781602001600182028038833980820191505090505b50905060008090505b60008514151561154b576000600a868115156114c957fe5b069050600a868115156114d857fe5b049550806030017f010000000000000000000000000000000000000000000000000000000000000002838380600101945081518110151561151557fe5b9060200101907effffffffffffffffffffffffffffffffffffffffffffffffffffffffffffff1916908160001a905350506114b1565b60608690506060828251016040519080825280601f01601f1916602001820160405280156115885781602001600182028038833980820191505090505b50905060008090505b825181101561163e5782818151811015156115a857fe5b9060200101517f010000000000000000000000000000000000000000000000000000000000000090047f010000000000000000000000000000000000000000000000000000000000000002828281518110151561160157fe5b9060200101907effffffffffffffffffffffffffffffffffffffffffffffffffffffffffffff1916908160001a9053508080600101915050611591565b600090505b838110156116f7578481600186030381518110151561165e57fe5b9060200101517f010000000000000000000000000000000000000000000000000000000000000090047f01000000000000000000000000000000000000000000000000000000000000000282845183018151811015156116ba57fe5b9060200101907effffffffffffffffffffffffffffffffffffffffffffffffffffffffffffff1916908160001a9053508080600101915050611643565b81965086965050505050505092915050565b600044428360405160200180848152602001838152602001828152602001935050505060405160208183030381529060405280519060200120600190049050919050565b60008290506000829050808214156117665750506118c0565b600085600286860381151561177757fe5b05860181518110151561178657fe5b9060200190602002015160ff1690505b8183131515611894575b8086848151811015156117af57fe5b9060200190602002015160ff1610156117cf5782806001019350506117a0565b5b85828151811015156117de57fe5b9060200190602002015160ff16811015611800578180600190039250506117d0565b818313151561188f57858281518110151561181757fe5b90602001906020020151868481518110151561182f57fe5b90602001906020020151878581518110151561184757fe5b906020019060200201888581518110151561185e57fe5b9060200190602002018260ff1660ff168152508260ff1660ff16815250505082806001019350508180600190039250505b611796565b818512156118a8576118a786868461174d565b5b838312156118bc576118bb86848661174d565b5b5050505b505050565b82805482825590600052602060002090601f0160209004810192821561195b5791602002820160005b8382111561192c57835183826101000a81548160ff021916908360ff16021790555092602001926001016020816000010492830192600103026118ee565b80156119595782816101000a81549060ff021916905560010160208160000104928301926001030261192c565b505b509050611968919061198e565b5090565b6060604051908101604052806000815260200160608152602001600081525090565b6119bb91905b808211156119b757600081816101000a81549060ff021916905550600101611994565b5090565b90565b60006119ca8235612383565b905092915050565b60006119de8251612395565b905092915050565b60006119f282356123a1565b905092915050565b600082601f8301121515611a0d57600080fd5b8135611a20611a1b82612266565b612239565b91508082526020830160208301858383011115611a3c57600080fd5b611a478382846123eb565b50505092915050565b6000611a5c82516123ab565b905092915050565b600060208284031215611a7657600080fd5b6000611a84848285016119be565b91505092915050565b600060208284031215611a9f57600080fd5b6000611aad848285016119d2565b91505092915050565b600060208284031215611ac857600080fd5b6000611ad6848285016119e6565b91505092915050565b600060208284031215611af157600080fd5b600082013567ffffffffffffffff811115611b0b57600080fd5b611b17848285016119fa565b91505092915050565b600060208284031215611b3257600080fd5b6000611b4084828501611a50565b91505092915050565b611b52816123b5565b82525050565b611b6181612330565b82525050565b611b708161231e565b82525050565b6000611b81826122cb565b808452602084019350611b9383612292565b60005b82811015611bc557611ba9868351611b58565b611bb2826122f7565b9150602086019550600181019050611b96565b50849250505092915050565b6000611bdc826122d6565b80845260208401935083602082028501611bf58561229f565b60005b84811015611c2e578383038852611c10838351611ffb565b9250611c1b82612304565b9150602088019750600181019050611bf8565b508196508694505050505092915050565b6000611c4a826122e1565b808452602084019350611c5c836122ac565b60005b82811015611c8e57611c728683516120c1565b611c7b82612311565b9150602086019550600181019050611c5f565b50849250505092915050565b6000611ca5826122ec565b80845260208401935083611cb8846122b9565b60005b83811015611fd7578154611cd788611cd2836123fa565b6120c1565b602088019750611cef88611cea83612763565b6120c1565b602088019750611d0788611d0283612515565b6120c1565b602088019750611d1f88611d1a836126af565b6120c1565b602088019750611d3788611d32836126bf565b6120c1565b602088019750611d4f88611d4a836126d0565b6120c1565b602088019750611d6788611d62836126e2565b6120c1565b602088019750611d7f88611d7a836126f5565b6120c1565b602088019750611d9788611d9283612709565b6120c1565b602088019750611daf88611daa8361271e565b6120c1565b602088019750611dc788611dc283612734565b6120c1565b602088019750611ddf88611dda8361274b565b6120c1565b602088019750611df788611df283612771565b6120c1565b602088019750611e0f88611e0a83612407565b6120c1565b602088019750611e2788611e2283612421565b6120c1565b602088019750611e3f88611e3a8361243c565b6120c1565b602088019750611e5788611e5283612458565b6120c1565b602088019750611e6f88611e6a83612475565b6120c1565b602088019750611e8788611e8283612493565b6120c1565b602088019750611e9f88611e9a836124b2565b6120c1565b602088019750611eb788611eb2836124d2565b6120c1565b602088019750611ecf88611eca836124f3565b6120c1565b602088019750611ee788611ee283612524565b6120c1565b602088019750611eff88611efa83612547565b6120c1565b602088019750611f1788611f128361256b565b6120c1565b602088019750611f2f88611f2a83612590565b6120c1565b602088019750611f4788611f42836125b6565b6120c1565b602088019750611f5f88611f5a836125dd565b6120c1565b602088019750611f7788611f7283612605565b6120c1565b602088019750611f8f88611f8a8361262e565b6120c1565b602088019750611fa788611fa283612658565b6120c1565b602088019750611fbf88611fba83612683565b6120c1565b60208801975060018301925050602081019050611cbb565b50602083028201955085935050505092915050565b611ff581612342565b82525050565b600060608301600083015161201360008601826120b2565b506020830151848203602086015261202b8282611c3f565b915050604083015161204060408601826120b2565b508091505092915050565b6000606083016000808401549050612062816123fa565b61206f60008701826120b2565b506001840185830360208701526120868382611c9a565b92505060028401549050612099816123fa565b6120a660408701826120b2565b50819250505092915050565b6120bb8161236c565b82525050565b6120ca81612376565b82525050565b60006020820190506120e56000830184611b67565b92915050565b60006040820190506121006000830185611b49565b61210d6020830184611b67565b9392505050565b60006060820190506121296000830186611b49565b6121366020830185611b67565b61214360408301846120b2565b949350505050565b60006040820190506121606000830185611b67565b61216d6020830184611b67565b9392505050565b60006040820190506121896000830185611b67565b61219660208301846120b2565b9392505050565b600060208201905081810360008301526121b78184611b76565b905092915050565b600060208201905081810360008301526121d98184611bd1565b905092915050565b60006020820190506121f66000830184611fec565b92915050565b60006020820190508181036000830152612216818461204b565b905092915050565b600060208201905061223360008301846120b2565b92915050565b6000604051905081810181811067ffffffffffffffff8211171561225c57600080fd5b8060405250919050565b600067ffffffffffffffff82111561227d57600080fd5b601f19601f8301169050602081019050919050565b6000602082019050919050565b6000602082019050919050565b6000602082019050919050565b60008160005260206000209050919050565b600081519050919050565b600081519050919050565b600081519050919050565b600081549050919050565b6000602082019050919050565b6000602082019050919050565b6000602082019050919050565b60006123298261234c565b9050919050565b600061233b8261234c565b9050919050565b6000819050919050565b600073ffffffffffffffffffffffffffffffffffffffff82169050919050565b6000819050919050565b600060ff82169050919050565b600061238e8261234c565b9050919050565b60008115159050919050565b6000819050919050565b6000819050919050565b60006123c0826123c7565b9050919050565b60006123d2826123d9565b9050919050565b60006123e48261234c565b9050919050565b82818337600083830152505050565b6000600182049050919050565b60006d010000000000000000000000000082049050919050565b60006e01000000000000000000000000000082049050919050565b60006f0100000000000000000000000000000082049050919050565b600070010000000000000000000000000000000082049050919050565b60007101000000000000000000000000000000000082049050919050565b6000720100000000000000000000000000000000000082049050919050565b600073010000000000000000000000000000000000000082049050919050565b60007401000000000000000000000000000000000000000082049050919050565b6000750100000000000000000000000000000000000000000082049050919050565b60006201000082049050919050565b600076010000000000000000000000000000000000000000000082049050919050565b60007701000000000000000000000000000000000000000000000082049050919050565b6000780100000000000000000000000000000000000000000000000082049050919050565b600079010000000000000000000000000000000000000000000000000082049050919050565b60007a01000000000000000000000000000000000000000000000000000082049050919050565b60007b0100000000000000000000000000000000000000000000000000000082049050919050565b60007c010000000000000000000000000000000000000000000000000000000082049050919050565b60007d01000000000000000000000000000000000000000000000000000000000082049050919050565b60007e0100000000000000000000000000000000000000000000000000000000000082049050919050565b60007f010000000000000000000000000000000000000000000000000000000000000082049050919050565b6000630100000082049050919050565b600064010000000082049050919050565b60006501000000000082049050919050565b6000660100000000000082049050919050565b600067010000000000000082049050919050565b60006801000000000000000082049050919050565b6000690100000000000000000082049050919050565b60006a010000000000000000000082049050919050565b60006b01000000000000000000000082049050919050565b600061010082049050919050565b60006c010000000000000000000000008204905091905056fea265627a7a72305820feab4b28a66dee341d9f2966753501636b8a9d03701c1433a009449d7bd69ec46c6578706572696d656e74616cf50037",
  "source": "pragma solidity ^0.5.0;\r\npragma experimental ABIEncoderV2;\r\n// import \"@openzeppelin/contracts/math/SafeMath.sol\";\r\n\r\ncontract Lottery {\r\n    // using SafeMath for uint256;\r\nstruct Win{\r\n    uint256 totalPrize;\r\n    uint8[] winningNumbers;\r\n    uint256 winners;\r\n}\r\n\r\n\r\n    address public manager;\r\n    mapping(uint256 => mapping(bytes32 => address payable[])) lotteryEntries;\r\n    mapping(uint256 => uint256) numberOfEntriesPerExtraction;\r\n    mapping(uint256 => Win) winPerExtraction;\r\n    uint256 public ticketPrice;\r\n    uint256 public extractionNo;\r\n    uint8 private nrOfNumbers;\r\n    uint8 private limit;\r\n    MaiaTokenPartner private maiaTokenContract;\r\n\r\n    function test_getKacAbiEncode(string memory input)\r\n        public\r\n        pure\r\n        returns (bytes32)\r\n    {\r\n        return keccak256(abi.encodePacked(input));\r\n    }\r\n\r\n    function test_getWinnerHash() public view returns (bytes32) {\r\n        uint8[] memory numbers = new uint8[](nrOfNumbers);\r\n        for (uint8 index = 0; index < 6; index++) {\r\n            numbers[index] = index + 1;\r\n        }\r\n        string memory numbersConcatenated;\r\n        for (uint8 i = 0; i < nrOfNumbers; i++) {\r\n            numbersConcatenated = appendUintToString(\r\n                numbersConcatenated,\r\n                numbers[i]\r\n            );\r\n        }\r\n        bytes32 winningHash = keccak256(abi.encodePacked(numbersConcatenated));\r\n        return winningHash;\r\n    }\r\n\r\n    function test_getAmountWinnedByEveryPlayer() public view returns (uint256) {\r\n        bytes32 winningHash =\r\n            0xc888c9ce9e098d5864d3ded6ebcc140a12142263bace3a23a36f9905f12bd64a;\r\n        uint256 numberOfWinners =\r\n            lotteryEntries[extractionNo][winningHash].length;\r\n\r\n        // uint256 amountWinByEveryParticipant =\r\n        // SafeMath.div(accumulatedPrize, numberOfWinners);\r\n        if (numberOfWinners == 0) return 1;\r\n\r\n        uint256 amountWinByEveryParticipant = getBalance() / numberOfWinners;\r\n\r\n        return amountWinByEveryParticipant;\r\n    }\r\n\r\n    function getLotteryEntries()\r\n        public\r\n        view\r\n        returns (address payable[] memory)\r\n    {\r\n        bytes32 x =\r\n            0xc888c9ce9e098d5864d3ded6ebcc140a12142263bace3a23a36f9905f12bd64a;\r\n        return lotteryEntries[extractionNo][x];\r\n    }\r\n\r\n    constructor(address maiaTokenAddress) public {\r\n        manager = msg.sender;\r\n        extractionNo = 0;\r\n        nrOfNumbers = 6;\r\n        limit = 49;\r\n        ticketPrice = 100;\r\n        maiaTokenContract = MaiaTokenPartner(maiaTokenAddress);\r\n    }\r\n\r\n    // function enter(bytes32 entryHash) public payable {\r\n    //     require(msg.value >= 0.01 ether);\r\n    //     players[extractionNo].push(msg.sender);\r\n    //     lotteryEntries[extractionNo][entryHash].push(msg.sender);\r\n    //     emit NewEntry(\r\n    //          players[extractionNo].length\r\n    //     );\r\n    // }\r\n\r\n    function approveLottery() public payable{\r\n        maiaTokenContract.approve(address(this), ticketPrice);\r\n    }\r\n\r\n    function getApprovedLotteryValue(address user) public view returns (uint256) {\r\n        return maiaTokenContract.allowance(user, address(this));\r\n    }\r\n\r\n    function enterLottery(bytes32 entryHash) public payable{\r\n        uint256 allowanceOfMaiaTokens = maiaTokenContract.allowance(msg.sender, address(this));\r\n        require(allowanceOfMaiaTokens >= ticketPrice);\r\n        numberOfEntriesPerExtraction[extractionNo] = numberOfEntriesPerExtraction[extractionNo] + 1;\r\n        lotteryEntries[extractionNo][entryHash].push(msg.sender);\r\n        maiaTokenContract.transferFrom(msg.sender, address(this), ticketPrice);\r\n        emit NewEntry(numberOfEntriesPerExtraction[extractionNo]);\r\n    }\r\n\r\n    function random(uint256 seed) private view returns (uint256) {\r\n        return\r\n            uint256(keccak256(abi.encodePacked(block.difficulty, now, seed)));\r\n    }\r\n\r\n    function quickSort(\r\n        uint8[] memory arr,\r\n        int256 left,\r\n        int256 right\r\n    ) private pure {\r\n        int256 i = left;\r\n        int256 j = right;\r\n        if (i == j) return;\r\n        uint256 pivot = arr[uint256(left + (right - left) / 2)];\r\n        while (i <= j) {\r\n            while (arr[uint256(i)] < pivot) i++;\r\n            while (pivot < arr[uint256(j)]) j--;\r\n            if (i <= j) {\r\n                (arr[uint256(i)], arr[uint256(j)]) = (\r\n                    arr[uint256(j)],\r\n                    arr[uint256(i)]\r\n                );\r\n                i++;\r\n                j--;\r\n            }\r\n        }\r\n        if (left < j) quickSort(arr, left, j);\r\n        if (i < right) quickSort(arr, i, right);\r\n    }\r\n\r\n    function getWinnerNumbers() private view returns (uint8[] memory) {\r\n        bool[] memory alreadyPicked = new bool[](50);\r\n        for (uint8 i = 0; i < limit; i++) {\r\n            alreadyPicked[i] = false;\r\n        }\r\n        uint256 initialSeed = now;\r\n        uint8[] memory winnerNumbers = new uint8[](nrOfNumbers);\r\n\r\n        uint8 temp = uint8((random(initialSeed) % limit) + 1);\r\n        alreadyPicked[temp] = true;\r\n        winnerNumbers[0] = temp;\r\n        for (uint8 i = 1; i < nrOfNumbers; i++) {\r\n            while (alreadyPicked[temp] == true) {\r\n                temp = uint8((random(winnerNumbers[i - 1]) % limit) + 1);\r\n            }\r\n\r\n            winnerNumbers[i] = uint8(\r\n                (random(winnerNumbers[i - 1]) % limit) + 1\r\n            );\r\n            alreadyPicked[temp] = true;\r\n        }\r\n\r\n        quickSort(winnerNumbers, 0, int256(winnerNumbers.length - 1));\r\n\r\n        return winnerNumbers;\r\n    }\r\n\r\n    function appendUintToString(string memory inStr, uint256 v)\r\n        private\r\n        pure\r\n        returns (string memory str)\r\n    {\r\n        uint256 maxlength = 100;\r\n        bytes memory reversed = new bytes(maxlength);\r\n        uint256 i = 0;\r\n        while (v != 0) {\r\n            uint256 remainder = v % 10;\r\n            v = v / 10;\r\n            reversed[i++] = bytes1(uint8(48 + remainder));\r\n        }\r\n        bytes memory inStrb = bytes(inStr);\r\n        bytes memory s = new bytes(inStrb.length + i);\r\n        uint256 j;\r\n        for (j = 0; j < inStrb.length; j++) {\r\n            s[j] = inStrb[j];\r\n        }\r\n        for (j = 0; j < i; j++) {\r\n            s[j + inStrb.length] = reversed[i - 1 - j];\r\n        }\r\n        str = string(s);\r\n        return str;\r\n    }\r\n\r\n    function pickWinner() public restricted {\r\n        // for testing purposes\r\n        // uint8[] memory numbers = new uint8[](nrOfNumbers);\r\n        // for (uint8 index = 0; index < 6; index++) {\r\n        //     numbers[index] = index + 1;\r\n        // }\r\n        uint256 totalPrize =  maiaTokenContract.balanceOf(address(this));\r\n        if(totalPrize == 0){\r\n            emit NoEntries();\r\n        }else{\r\n            uint8[] memory numbers = getWinnerNumbers();\r\n            string memory numbersConcatenated;\r\n            for (uint8 i = 0; i < nrOfNumbers; i++) {\r\n                numbersConcatenated = appendUintToString(\r\n                    numbersConcatenated,\r\n                    numbers[i]\r\n                );\r\n            }\r\n            bytes32 winningHash = keccak256(abi.encodePacked(numbersConcatenated));\r\n            uint256 numberOfWinners = lotteryEntries[extractionNo][winningHash].length;\r\n\r\n            winPerExtraction[extractionNo] = Win(totalPrize, numbers, numberOfWinners);\r\n\r\n            if (numberOfWinners > 0) {\r\n                // uint256 amountWinByEveryParticipant =\r\n                // SafeMath.div(accumulatedPrize, numberOfWinners);\r\n                uint256 amountWinByEveryParticipant =\r\n                    maiaTokenContract.balanceOf(address(this)) / numberOfWinners;\r\n                for (uint8 i = 0; i < numberOfWinners; i++) {\r\n                    lotteryEntries[extractionNo][winningHash][i].transfer(\r\n                        amountWinByEveryParticipant\r\n                    );\r\n                }\r\n            }\r\n            emit Winners(winPerExtraction[extractionNo]);\r\n            extractionNo += 1;\r\n        }\r\n    }\r\n\r\n    modifier restricted() {\r\n        require(msg.sender == manager);\r\n        _;\r\n    }\r\n\r\n    function getEntriesForCurrentExtraction() public view returns (uint256) {\r\n        return numberOfEntriesPerExtraction[extractionNo];\r\n    }\r\n\r\n    function getBalance() public view restricted returns (uint256) {\r\n        return address(this).balance;\r\n    }\r\n\r\n    function getLast5Winnings() public view returns (Win[] memory){\r\n        Win[] memory lastWinnings = new Win[](extractionNo);\r\n        if(extractionNo == 0){\r\n            return lastWinnings;\r\n        }\r\n        for(uint256 i = extractionNo - 1; i >= extractionNo - 5; i--){\r\n            lastWinnings[extractionNo - 1 - i] = winPerExtraction[i];\r\n        }\r\n        return lastWinnings;\r\n    }\r\n\r\n    event NoEntries();\r\n\r\n    event Winners(Win);\r\n\r\n    event NewEntry(uint256);\r\n}\r\n\r\n\r\ncontract MaiaTokenPartner{\r\n\r\n    function balanceOf(address account) external view returns (uint256);\r\n\r\n//    function transfer(address recipient, uint256 amount) external returns (bool);\r\n\r\n    function allowance(address owner, address spender) external view returns (uint256);\r\n\r\n    function approve(address spender, uint256 amount) external returns (bool);\r\n\r\n    function transferFrom(address sender, address recipient, uint256 amount) external returns (bool);\r\n}",
  "sourcePath": "D:/Facultate/Facultate An 3/Semestrul 2/Blockchain/Proiect/contracts/Lottery.sol",
  "compiler": {
    "name": "solc",
    "version": "0.5.0+commit.1d4f565a.Emscripten.clang"
  },
  "schemaVersion": "3.4.1",
  "updatedAt": "2021-05-14T07:54:49.248Z",
  "networkType": "ethereum",
  "devdoc": {
    "methods": {}
  },
  "userdoc": {
    "methods": {}
  }
}