{
  "contractName": "Lottery",
  "abi": [
    {
      "constant": true,
      "inputs": [],
      "name": "manager",
      "outputs": [
        {
          "name": "",
          "type": "address"
        }
      ],
      "payable": false,
      "stateMutability": "view",
      "type": "function"
    },
    {
      "constant": true,
      "inputs": [],
      "name": "extractionNo",
      "outputs": [
        {
          "name": "",
          "type": "uint256"
        }
      ],
      "payable": false,
      "stateMutability": "view",
      "type": "function"
    },
    {
      "inputs": [],
      "payable": false,
      "stateMutability": "nonpayable",
      "type": "constructor"
    },
    {
      "anonymous": false,
      "inputs": [
        {
          "indexed": true,
          "name": "",
          "type": "address[]"
        },
        {
          "indexed": false,
          "name": "",
          "type": "uint256"
        }
      ],
      "name": "Winners",
      "type": "event"
    },
    {
      "anonymous": false,
      "inputs": [
        {
          "indexed": false,
          "name": "",
          "type": "uint256"
        }
      ],
      "name": "NewEntry",
      "type": "event"
    },
    {
      "constant": true,
      "inputs": [
        {
          "name": "input",
          "type": "string"
        }
      ],
      "name": "test_getKacAbiEncode",
      "outputs": [
        {
          "name": "",
          "type": "bytes32"
        }
      ],
      "payable": false,
      "stateMutability": "pure",
      "type": "function"
    },
    {
      "constant": true,
      "inputs": [],
      "name": "test_getWinnerHash",
      "outputs": [
        {
          "name": "",
          "type": "bytes32"
        }
      ],
      "payable": false,
      "stateMutability": "view",
      "type": "function"
    },
    {
      "constant": true,
      "inputs": [],
      "name": "test_getAmountWinnedByEveryPlayer",
      "outputs": [
        {
          "name": "",
          "type": "uint256"
        }
      ],
      "payable": false,
      "stateMutability": "view",
      "type": "function"
    },
    {
      "constant": true,
      "inputs": [],
      "name": "getLotteryEntries",
      "outputs": [
        {
          "name": "",
          "type": "address[]"
        }
      ],
      "payable": false,
      "stateMutability": "view",
      "type": "function"
    },
    {
      "constant": false,
      "inputs": [
        {
          "name": "entryHash",
          "type": "bytes32"
        }
      ],
      "name": "enter",
      "outputs": [],
      "payable": true,
      "stateMutability": "payable",
      "type": "function"
    },
    {
      "constant": false,
      "inputs": [
        {
          "name": "maiaTokenAddress",
          "type": "address"
        }
      ],
      "name": "approveLottery",
      "outputs": [],
      "payable": true,
      "stateMutability": "payable",
      "type": "function"
    },
    {
      "constant": false,
      "inputs": [
        {
          "name": "entryHash",
          "type": "bytes32"
        },
        {
          "name": "maiaTokenAddress",
          "type": "address"
        }
      ],
      "name": "enterLottery",
      "outputs": [],
      "payable": true,
      "stateMutability": "payable",
      "type": "function"
    },
    {
      "constant": false,
      "inputs": [],
      "name": "pickWinner",
      "outputs": [],
      "payable": false,
      "stateMutability": "nonpayable",
      "type": "function"
    },
    {
      "constant": true,
      "inputs": [],
      "name": "getPlayers",
      "outputs": [
        {
          "name": "",
          "type": "address[]"
        }
      ],
      "payable": false,
      "stateMutability": "view",
      "type": "function"
    },
    {
      "constant": true,
      "inputs": [],
      "name": "getPlayersNumber",
      "outputs": [
        {
          "name": "",
          "type": "uint256"
        }
      ],
      "payable": false,
      "stateMutability": "view",
      "type": "function"
    },
    {
      "constant": true,
      "inputs": [],
      "name": "getBalance",
      "outputs": [
        {
          "name": "",
          "type": "uint256"
        }
      ],
      "payable": false,
      "stateMutability": "view",
      "type": "function"
    }
  ],
  "bytecode": "0x608060405234801561001057600080fd5b50336000806101000a81548173ffffffffffffffffffffffffffffffffffffffff021916908373ffffffffffffffffffffffffffffffffffffffff16021790555060006003819055506006600460006101000a81548160ff021916908360ff1602179055506031600460016101000a81548160ff021916908360ff160217905550611431806100a06000396000f3fe6080604052600436106100c5576000357c0100000000000000000000000000000000000000000000000000000000900463ffffffff16806312065fe0146100ca5780631207df10146100f5578063481c6a7514610143578063568ab21e1461019a5780635d495aea146101c8578063766eef11146101df578063808a8c9c1461020a578063838bc16d146102355780638b5b9ccc1461031157806395db9baa1461037d578063b3a55a66146103a8578063d6145c2514610414578063d7709f971461043f575b600080fd5b3480156100d657600080fd5b506100df610483565b6040518082815260200191505060405180910390f35b6101416004803603604081101561010b57600080fd5b8101908080359060200190929190803573ffffffffffffffffffffffffffffffffffffffff1690602001909291905050506104fd565b005b34801561014f57600080fd5b506101586106f3565b604051808273ffffffffffffffffffffffffffffffffffffffff1673ffffffffffffffffffffffffffffffffffffffff16815260200191505060405180910390f35b6101c6600480360360208110156101b057600080fd5b8101908080359060200190929190505050610718565b005b3480156101d457600080fd5b506101dd610883565b005b3480156101eb57600080fd5b506101f4610c42565b6040518082815260200191505060405180910390f35b34801561021657600080fd5b5061021f610c62565b6040518082815260200191505060405180910390f35b34801561024157600080fd5b506102fb6004803603602081101561025857600080fd5b810190808035906020019064010000000081111561027557600080fd5b82018360208201111561028757600080fd5b803590602001918460018302840111640100000000831117156102a957600080fd5b91908080601f016020809104026020016040519081016040528093929190818152602001838380828437600081840152601f19601f820116905080830192505050505050509192919290505050610c68565b6040518082815260200191505060405180910390f35b34801561031d57600080fd5b50610326610ce5565b6040518080602001828103825283818151815260200191508051906020019060200280838360005b8381101561036957808201518184015260208101905061034e565b505050509050019250505060405180910390f35b34801561038957600080fd5b50610392610d86565b6040518082815260200191505060405180910390f35b3480156103b457600080fd5b506103bd610ef6565b6040518080602001828103825283818151815260200191508051906020019060200280838360005b838110156104005780820151818401526020810190506103e5565b505050509050019250505060405180910390f35b34801561042057600080fd5b50610429610fd1565b6040518082815260200191505060405180910390f35b6104816004803603602081101561045557600080fd5b81019080803573ffffffffffffffffffffffffffffffffffffffff16906020019092919050505061105d565b005b60008060009054906101000a900473ffffffffffffffffffffffffffffffffffffffff1673ffffffffffffffffffffffffffffffffffffffff163373ffffffffffffffffffffffffffffffffffffffff161415156104e057600080fd5b3073ffffffffffffffffffffffffffffffffffffffff1631905090565b600081905060008173ffffffffffffffffffffffffffffffffffffffff166370a08231336040518263ffffffff167c0100000000000000000000000000000000000000000000000000000000028152600401808273ffffffffffffffffffffffffffffffffffffffff1673ffffffffffffffffffffffffffffffffffffffff16815260200191505060206040518083038186803b15801561059d57600080fd5b505afa1580156105b1573d6000803e3d6000fd5b505050506040513d60208110156105c757600080fd5b81019080805190602001909291905050509050606481101515156105ea57600080fd5b6001600060035481526020019081526020016000203390806001815401808255809150509060018203906000526020600020016000909192909190916101000a81548173ffffffffffffffffffffffffffffffffffffffff021916908373ffffffffffffffffffffffffffffffffffffffff1602179055505060026000600354815260200190815260200160002060008581526020019081526020016000203390806001815401808255809150509060018203906000526020600020016000909192909190916101000a81548173ffffffffffffffffffffffffffffffffffffffff021916908373ffffffffffffffffffffffffffffffffffffffff1602179055505050505050565b6000809054906101000a900473ffffffffffffffffffffffffffffffffffffffff1681565b662386f26fc10000341015151561072e57600080fd5b6001600060035481526020019081526020016000203390806001815401808255809150509060018203906000526020600020016000909192909190916101000a81548173ffffffffffffffffffffffffffffffffffffffff021916908373ffffffffffffffffffffffffffffffffffffffff1602179055505060026000600354815260200190815260200160002060008281526020019081526020016000203390806001815401808255809150509060018203906000526020600020016000909192909190916101000a81548173ffffffffffffffffffffffffffffffffffffffff021916908373ffffffffffffffffffffffffffffffffffffffff160217905550507f9784cddb81f16b16cc2f8fe4003dfe483b96f22e0a1b028e6c120046df327df3600160006003548152602001908152602001600020805490506040518082815260200191505060405180910390a150565b6000809054906101000a900473ffffffffffffffffffffffffffffffffffffffff1673ffffffffffffffffffffffffffffffffffffffff163373ffffffffffffffffffffffffffffffffffffffff161415156108de57600080fd5b6060600460009054906101000a900460ff1660ff166040519080825280602002602001820160405280156109215781602001602082028038833980820191505090505b50905060008090505b60068160ff16101561096e5760018101828260ff1681518110151561094b57fe5b9060200190602002019060ff16908160ff1681525050808060010191505061092a565b50606060008090505b600460009054906101000a900460ff1660ff168160ff1610156109ca576109bb82848360ff168151811015156109a957fe5b9060200190602002015160ff16611167565b91508080600101915050610977565b506000816040516020018082805190602001908083835b602083101515610a0657805182526020820191506020810190506020830392506109e1565b6001836020036101000a038019825116818451168082178552505050505050905001915050604051602081830303815290604052805190602001209050600060026000600354815260200190815260200160002060008381526020019081526020016000208054905090506000811115610c2b57600081610a85610483565b811515610a8e57fe5b04905060008090505b828160ff161015610b565760026000600354815260200190815260200160002060008581526020019081526020016000208160ff16815481101515610ad857fe5b9060005260206000200160009054906101000a900473ffffffffffffffffffffffffffffffffffffffff1673ffffffffffffffffffffffffffffffffffffffff166108fc839081150290604051600060405180830381858888f19350505050158015610b48573d6000803e3d6000fd5b508080600101915050610a97565b506002600060035481526020019081526020016000206000848152602001908152602001600020604051808280548015610be557602002820191906000526020600020905b8160009054906101000a900473ffffffffffffffffffffffffffffffffffffffff1673ffffffffffffffffffffffffffffffffffffffff1681526020019060010190808311610b9b575b505091505060405180910390207f413cf1e17d70833c017de9b3c64d0104e3e37a7191d95b3d0d6276de992a0b4d826040518082815260200191505060405180910390a2505b600160036000828254019250508190555050505050565b600060016000600354815260200190815260200160002080549050905090565b60035481565b6000816040516020018082805190602001908083835b602083101515610ca35780518252602082019150602081019050602083039250610c7e565b6001836020036101000a038019825116818451168082178552505050505050905001915050604051602081830303815290604052805190602001209050919050565b6060600160006003548152602001908152602001600020805480602002602001604051908101604052809291908181526020018280548015610d7c57602002820191906000526020600020905b8160009054906101000a900473ffffffffffffffffffffffffffffffffffffffff1673ffffffffffffffffffffffffffffffffffffffff1681526020019060010190808311610d32575b5050505050905090565b60006060600460009054906101000a900460ff1660ff16604051908082528060200260200182016040528015610dcb5781602001602082028038833980820191505090505b50905060008090505b60068160ff161015610e185760018101828260ff16815181101515610df557fe5b9060200190602002019060ff16908160ff16815250508080600101915050610dd4565b50606060008090505b600460009054906101000a900460ff1660ff168160ff161015610e7457610e6582848360ff16815181101515610e5357fe5b9060200190602002015160ff16611167565b91508080600101915050610e21565b506000816040516020018082805190602001908083835b602083101515610eb05780518252602082019150602081019050602083039250610e8b565b6001836020036101000a03801982511681845116808217855250505050505090500191505060405160208183030381529060405280519060200120905080935050505090565b606060007fc888c9ce9e098d5864d3ded6ebcc140a12142263bace3a23a36f9905f12bd64a60010290506002600060035481526020019081526020016000206000828152602001908152602001600020805480602002602001604051908101604052809291908181526020018280548015610fc657602002820191906000526020600020905b8160009054906101000a900473ffffffffffffffffffffffffffffffffffffffff1673ffffffffffffffffffffffffffffffffffffffff1681526020019060010190808311610f7c575b505050505091505090565b6000807fc888c9ce9e098d5864d3ded6ebcc140a12142263bace3a23a36f9905f12bd64a600102905060006002600060035481526020019081526020016000206000838152602001908152602001600020805490509050600081141561103c5760019250505061105a565b600081611047610483565b81151561105057fe5b0490508093505050505b90565b60008190508073ffffffffffffffffffffffffffffffffffffffff1663095ea7b36000809054906101000a900473ffffffffffffffffffffffffffffffffffffffff1660646040518363ffffffff167c0100000000000000000000000000000000000000000000000000000000028152600401808373ffffffffffffffffffffffffffffffffffffffff1673ffffffffffffffffffffffffffffffffffffffff16815260200182815260200192505050602060405180830381600087803b15801561112757600080fd5b505af115801561113b573d6000803e3d6000fd5b505050506040513d602081101561115157600080fd5b8101908080519060200190929190505050505050565b60606000606490506060816040519080825280601f01601f1916602001820160405280156111a45781602001600182028038833980820191505090505b50905060008090505b600085141515611247576000600a868115156111c557fe5b069050600a868115156111d457fe5b049550806030017f010000000000000000000000000000000000000000000000000000000000000002838380600101945081518110151561121157fe5b9060200101907effffffffffffffffffffffffffffffffffffffffffffffffffffffffffffff1916908160001a905350506111ad565b60608690506060828251016040519080825280601f01601f1916602001820160405280156112845781602001600182028038833980820191505090505b50905060008090505b825181101561133a5782818151811015156112a457fe5b9060200101517f010000000000000000000000000000000000000000000000000000000000000090047f01000000000000000000000000000000000000000000000000000000000000000282828151811015156112fd57fe5b9060200101907effffffffffffffffffffffffffffffffffffffffffffffffffffffffffffff1916908160001a905350808060010191505061128d565b600090505b838110156113f3578481600186030381518110151561135a57fe5b9060200101517f010000000000000000000000000000000000000000000000000000000000000090047f01000000000000000000000000000000000000000000000000000000000000000282845183018151811015156113b657fe5b9060200101907effffffffffffffffffffffffffffffffffffffffffffffffffffffffffffff1916908160001a905350808060010191505061133f565b8196508696505050505050509291505056fea165627a7a72305820a9611e99dab56f2e0bd9680871f89c89436ac7f2b1a7f19fb544b72b9a39ac570029",
  "source": "pragma solidity ^0.5.0;\r\n\r\n// import \"@openzeppelin/contracts/math/SafeMath.sol\";\r\n\r\ncontract Lottery {\r\n    // using SafeMath for uint256;\r\n\r\n    address public manager;\r\n    mapping(uint256 => address[]) players;\r\n    mapping(uint256 => mapping(bytes32 => address payable[])) lotteryEntries;\r\n    uint256 public extractionNo;\r\n    uint8 private nrOfNumbers;\r\n    uint8 private limit;\r\n\r\n    function test_getKacAbiEncode(string memory input)\r\n        public\r\n        pure\r\n        returns (bytes32)\r\n    {\r\n        return keccak256(abi.encodePacked(input));\r\n    }\r\n\r\n    function test_getWinnerHash() public view returns (bytes32) {\r\n        uint8[] memory numbers = new uint8[](nrOfNumbers);\r\n        for (uint8 index = 0; index < 6; index++) {\r\n            numbers[index] = index + 1;\r\n        }\r\n        string memory numbersConcatenated;\r\n        for (uint8 i = 0; i < nrOfNumbers; i++) {\r\n            numbersConcatenated = appendUintToString(\r\n                numbersConcatenated,\r\n                numbers[i]\r\n            );\r\n        }\r\n        bytes32 winningHash = keccak256(abi.encodePacked(numbersConcatenated));\r\n        return winningHash;\r\n    }\r\n\r\n    function test_getAmountWinnedByEveryPlayer() public view returns (uint256) {\r\n        bytes32 winningHash =\r\n            0xc888c9ce9e098d5864d3ded6ebcc140a12142263bace3a23a36f9905f12bd64a;\r\n        uint256 numberOfWinners =\r\n            lotteryEntries[extractionNo][winningHash].length;\r\n\r\n        // uint256 amountWinByEveryParticipant =\r\n        // SafeMath.div(accumulatedPrize, numberOfWinners);\r\n        if (numberOfWinners == 0) return 1;\r\n\r\n        uint256 amountWinByEveryParticipant = getBalance() / numberOfWinners;\r\n\r\n        return amountWinByEveryParticipant;\r\n    }\r\n\r\n    function getLotteryEntries()\r\n        public\r\n        view\r\n        returns (address payable[] memory)\r\n    {\r\n        bytes32 x =\r\n            0xc888c9ce9e098d5864d3ded6ebcc140a12142263bace3a23a36f9905f12bd64a;\r\n        return lotteryEntries[extractionNo][x];\r\n    }\r\n\r\n    constructor() public {\r\n        manager = msg.sender;\r\n        extractionNo = 0;\r\n        nrOfNumbers = 6;\r\n        limit = 49;\r\n    }\r\n\r\n    function enter(bytes32 entryHash) public payable {\r\n        require(msg.value >= 0.01 ether);\r\n        players[extractionNo].push(msg.sender);\r\n        lotteryEntries[extractionNo][entryHash].push(msg.sender);\r\n        emit NewEntry(\r\n             players[extractionNo].length\r\n        );\r\n    }\r\n\r\n    function approveLottery(address maiaTokenAddress) public payable{\r\n        MaiaToken maiaTokenContract = MaiaToken(maiaTokenAddress);\r\n        maiaTokenContract.approve(manager, 100);\r\n    }\r\n\r\n    function enterLottery(bytes32 entryHash, address maiaTokenAddress) public payable{\r\n        MaiaToken maiaTokenContract = MaiaToken(maiaTokenAddress);\r\n        uint256 balanceOfMaiaTokens = maiaTokenContract.balanceOf(msg.sender);\r\n        require(balanceOfMaiaTokens >= 100);\r\n        players[extractionNo].push(msg.sender);\r\n        lotteryEntries[extractionNo][entryHash].push(msg.sender);\r\n    }\r\n\r\n    function random(uint256 seed) private view returns (uint256) {\r\n        return\r\n            uint256(keccak256(abi.encodePacked(block.difficulty, now, seed)));\r\n    }\r\n\r\n    function quickSort(\r\n        uint8[] memory arr,\r\n        int256 left,\r\n        int256 right\r\n    ) private pure {\r\n        int256 i = left;\r\n        int256 j = right;\r\n        if (i == j) return;\r\n        uint256 pivot = arr[uint256(left + (right - left) / 2)];\r\n        while (i <= j) {\r\n            while (arr[uint256(i)] < pivot) i++;\r\n            while (pivot < arr[uint256(j)]) j--;\r\n            if (i <= j) {\r\n                (arr[uint256(i)], arr[uint256(j)]) = (\r\n                    arr[uint256(j)],\r\n                    arr[uint256(i)]\r\n                );\r\n                i++;\r\n                j--;\r\n            }\r\n        }\r\n        if (left < j) quickSort(arr, left, j);\r\n        if (i < right) quickSort(arr, i, right);\r\n    }\r\n\r\n    function getWinnerNumbers() private view returns (uint8[] memory) {\r\n        bool[] memory alreadyPicked = new bool[](50);\r\n        for (uint8 i = 0; i < limit; i++) {\r\n            alreadyPicked[i] = false;\r\n        }\r\n        uint256 initialSeed = now;\r\n        uint8[] memory winnerNumbers = new uint8[](nrOfNumbers);\r\n\r\n        uint8 temp = uint8((random(initialSeed) % limit) + 1);\r\n        alreadyPicked[temp] = true;\r\n        winnerNumbers[0] = temp;\r\n        for (uint8 i = 1; i < nrOfNumbers; i++) {\r\n            while (alreadyPicked[temp] == true) {\r\n                temp = uint8((random(winnerNumbers[i - 1]) % limit) + 1);\r\n            }\r\n\r\n            winnerNumbers[i] = uint8(\r\n                (random(winnerNumbers[i - 1]) % limit) + 1\r\n            );\r\n            alreadyPicked[temp] = true;\r\n        }\r\n\r\n        quickSort(winnerNumbers, 0, int256(winnerNumbers.length - 1));\r\n\r\n        return winnerNumbers;\r\n    }\r\n\r\n    function appendUintToString(string memory inStr, uint256 v)\r\n        private\r\n        pure\r\n        returns (string memory str)\r\n    {\r\n        uint256 maxlength = 100;\r\n        bytes memory reversed = new bytes(maxlength);\r\n        uint256 i = 0;\r\n        while (v != 0) {\r\n            uint256 remainder = v % 10;\r\n            v = v / 10;\r\n            reversed[i++] = bytes1(uint8(48 + remainder));\r\n        }\r\n        bytes memory inStrb = bytes(inStr);\r\n        bytes memory s = new bytes(inStrb.length + i);\r\n        uint256 j;\r\n        for (j = 0; j < inStrb.length; j++) {\r\n            s[j] = inStrb[j];\r\n        }\r\n        for (j = 0; j < i; j++) {\r\n            s[j + inStrb.length] = reversed[i - 1 - j];\r\n        }\r\n        str = string(s);\r\n        return str;\r\n    }\r\n\r\n    function pickWinner() public restricted {\r\n        // for testing purposes\r\n        uint8[] memory numbers = new uint8[](nrOfNumbers);\r\n        for (uint8 index = 0; index < 6; index++) {\r\n            numbers[index] = index + 1;\r\n        }\r\n\r\n        // uint8[] memory numbers = getWinnerNumbers();\r\n        string memory numbersConcatenated;\r\n        for (uint8 i = 0; i < nrOfNumbers; i++) {\r\n            numbersConcatenated = appendUintToString(\r\n                numbersConcatenated,\r\n                numbers[i]\r\n            );\r\n        }\r\n        bytes32 winningHash = keccak256(abi.encodePacked(numbersConcatenated));\r\n        uint256 numberOfWinners =\r\n            lotteryEntries[extractionNo][winningHash].length;\r\n        if (numberOfWinners > 0) {\r\n            // uint256 amountWinByEveryParticipant =\r\n            // SafeMath.div(accumulatedPrize, numberOfWinners);\r\n            uint256 amountWinByEveryParticipant =\r\n                getBalance() / numberOfWinners;\r\n            for (uint8 i = 0; i < numberOfWinners; i++) {\r\n                lotteryEntries[extractionNo][winningHash][i].transfer(\r\n                    amountWinByEveryParticipant\r\n                );\r\n            }\r\n            emit Winners(\r\n                lotteryEntries[extractionNo][winningHash],\r\n                amountWinByEveryParticipant\r\n            );\r\n        }\r\n        extractionNo += 1;\r\n    }\r\n\r\n    modifier restricted() {\r\n        require(msg.sender == manager);\r\n        _;\r\n    }\r\n\r\n    function getPlayers() public view returns (address[] memory) {\r\n        return players[extractionNo];\r\n    }\r\n\r\n    function getPlayersNumber() public view returns (uint256) {\r\n        return players[extractionNo].length;\r\n    }\r\n\r\n    function getBalance() public view restricted returns (uint256) {\r\n        return address(this).balance;\r\n    }\r\n\r\n    event Winners(address payable[] indexed, uint256);\r\n\r\n    event NewEntry(uint256);\r\n}\r\n\r\n\r\ncontract MaiaToken{\r\n\r\n    function balanceOf(address account) external view returns (uint256);\r\n\r\n//    function transfer(address recipient, uint256 amount) external returns (bool);\r\n\r\n//    function allowance(address owner, address spender) external view returns (uint256);\r\n\r\n    function approve(address spender, uint256 amount) external returns (bool);\r\n\r\n//    function transferFrom(address sender, address recipient, uint256 amount) external returns (bool);\r\n}",
  "sourcePath": "C:/Users/rares/Desktop/crypto-raffle/contracts/Lottery.sol",
  "compiler": {
    "name": "solc",
    "version": "0.5.0+commit.1d4f565a.Emscripten.clang"
  },
  "schemaVersion": "3.4.0",
  "updatedAt": "2021-05-13T23:26:58.347Z",
  "devdoc": {
    "methods": {}
  },
  "userdoc": {
    "methods": {}
  }
}