{
  "contractName": "Lottery",
  "abi": [
    {
      "constant": true,
      "inputs": [],
      "name": "manager",
      "outputs": [
        {
          "name": "",
          "type": "address"
        }
      ],
      "payable": false,
      "stateMutability": "view",
      "type": "function"
    },
    {
      "constant": true,
      "inputs": [],
      "name": "extractionNo",
      "outputs": [
        {
          "name": "",
          "type": "uint256"
        }
      ],
      "payable": false,
      "stateMutability": "view",
      "type": "function"
    },
    {
      "inputs": [],
      "payable": false,
      "stateMutability": "nonpayable",
      "type": "constructor"
    },
    {
      "anonymous": false,
      "inputs": [
        {
          "indexed": true,
          "name": "",
          "type": "address[]"
        },
        {
          "indexed": false,
          "name": "",
          "type": "uint256"
        }
      ],
      "name": "Winners",
      "type": "event"
    },
    {
      "constant": true,
      "inputs": [
        {
          "name": "input",
          "type": "string"
        }
      ],
      "name": "test_getKacAbiEncode",
      "outputs": [
        {
          "name": "",
          "type": "bytes32"
        }
      ],
      "payable": false,
      "stateMutability": "pure",
      "type": "function"
    },
    {
      "constant": true,
      "inputs": [],
      "name": "test_getWinnerHash",
      "outputs": [
        {
          "name": "",
          "type": "bytes32"
        }
      ],
      "payable": false,
      "stateMutability": "view",
      "type": "function"
    },
    {
      "constant": true,
      "inputs": [],
      "name": "test_getAmountWinnedByEveryPlayer",
      "outputs": [
        {
          "name": "",
          "type": "uint256"
        }
      ],
      "payable": false,
      "stateMutability": "view",
      "type": "function"
    },
    {
      "constant": true,
      "inputs": [],
      "name": "getLotteryEntries",
      "outputs": [
        {
          "name": "",
          "type": "address[]"
        }
      ],
      "payable": false,
      "stateMutability": "view",
      "type": "function"
    },
    {
      "constant": false,
      "inputs": [
        {
          "name": "entryHash",
          "type": "bytes32"
        }
      ],
      "name": "enter",
      "outputs": [],
      "payable": true,
      "stateMutability": "payable",
      "type": "function"
    },
    {
      "constant": false,
      "inputs": [],
      "name": "pickWinner",
      "outputs": [],
      "payable": false,
      "stateMutability": "nonpayable",
      "type": "function"
    },
    {
      "constant": true,
      "inputs": [],
      "name": "getPlayers",
      "outputs": [
        {
          "name": "",
          "type": "address[]"
        }
      ],
      "payable": false,
      "stateMutability": "view",
      "type": "function"
    },
    {
      "constant": true,
      "inputs": [],
      "name": "getBalance",
      "outputs": [
        {
          "name": "",
          "type": "uint256"
        }
      ],
      "payable": false,
      "stateMutability": "view",
      "type": "function"
    }
  ],
  "bytecode": "0x608060405234801561001057600080fd5b50336000806101000a81548173ffffffffffffffffffffffffffffffffffffffff021916908373ffffffffffffffffffffffffffffffffffffffff16021790555060006003819055506006600460006101000a81548160ff021916908360ff1602179055506031600460016101000a81548160ff021916908360ff160217905550610fe4806100a06000396000f3fe6080604052600436106100a4576000357c0100000000000000000000000000000000000000000000000000000000900463ffffffff16806312065fe0146100a9578063481c6a75146100d4578063568ab21e1461012b5780635d495aea14610159578063808a8c9c14610170578063838bc16d1461019b5780638b5b9ccc1461027757806395db9baa146102e3578063b3a55a661461030e578063d6145c251461037a575b600080fd5b3480156100b557600080fd5b506100be6103a5565b6040518082815260200191505060405180910390f35b3480156100e057600080fd5b506100e961041f565b604051808273ffffffffffffffffffffffffffffffffffffffff1673ffffffffffffffffffffffffffffffffffffffff16815260200191505060405180910390f35b6101576004803603602081101561014157600080fd5b8101908080359060200190929190505050610444565b005b34801561016557600080fd5b5061016e610560565b005b34801561017c57600080fd5b5061018561091f565b6040518082815260200191505060405180910390f35b3480156101a757600080fd5b50610261600480360360208110156101be57600080fd5b81019080803590602001906401000000008111156101db57600080fd5b8201836020820111156101ed57600080fd5b8035906020019184600183028401116401000000008311171561020f57600080fd5b91908080601f016020809104026020016040519081016040528093929190818152602001838380828437600081840152601f19601f820116905080830192505050505050509192919290505050610925565b6040518082815260200191505060405180910390f35b34801561028357600080fd5b5061028c6109a2565b6040518080602001828103825283818151815260200191508051906020019060200280838360005b838110156102cf5780820151818401526020810190506102b4565b505050509050019250505060405180910390f35b3480156102ef57600080fd5b506102f8610a43565b6040518082815260200191505060405180910390f35b34801561031a57600080fd5b50610323610bb3565b6040518080602001828103825283818151815260200191508051906020019060200280838360005b8381101561036657808201518184015260208101905061034b565b505050509050019250505060405180910390f35b34801561038657600080fd5b5061038f610c8e565b6040518082815260200191505060405180910390f35b60008060009054906101000a900473ffffffffffffffffffffffffffffffffffffffff1673ffffffffffffffffffffffffffffffffffffffff163373ffffffffffffffffffffffffffffffffffffffff1614151561040257600080fd5b3073ffffffffffffffffffffffffffffffffffffffff1631905090565b6000809054906101000a900473ffffffffffffffffffffffffffffffffffffffff1681565b662386f26fc10000341015151561045a57600080fd5b6001600060035481526020019081526020016000203390806001815401808255809150509060018203906000526020600020016000909192909190916101000a81548173ffffffffffffffffffffffffffffffffffffffff021916908373ffffffffffffffffffffffffffffffffffffffff1602179055505060026000600354815260200190815260200160002060008281526020019081526020016000203390806001815401808255809150509060018203906000526020600020016000909192909190916101000a81548173ffffffffffffffffffffffffffffffffffffffff021916908373ffffffffffffffffffffffffffffffffffffffff1602179055505050565b6000809054906101000a900473ffffffffffffffffffffffffffffffffffffffff1673ffffffffffffffffffffffffffffffffffffffff163373ffffffffffffffffffffffffffffffffffffffff161415156105bb57600080fd5b6060600460009054906101000a900460ff1660ff166040519080825280602002602001820160405280156105fe5781602001602082028038833980820191505090505b50905060008090505b60068160ff16101561064b5760018101828260ff1681518110151561062857fe5b9060200190602002019060ff16908160ff16815250508080600101915050610607565b50606060008090505b600460009054906101000a900460ff1660ff168160ff1610156106a75761069882848360ff1681518110151561068657fe5b9060200190602002015160ff16610d1a565b91508080600101915050610654565b506000816040516020018082805190602001908083835b6020831015156106e357805182526020820191506020810190506020830392506106be565b6001836020036101000a038019825116818451168082178552505050505050905001915050604051602081830303815290604052805190602001209050600060026000600354815260200190815260200160002060008381526020019081526020016000208054905090506000811115610908576000816107626103a5565b81151561076b57fe5b04905060008090505b828160ff1610156108335760026000600354815260200190815260200160002060008581526020019081526020016000208160ff168154811015156107b557fe5b9060005260206000200160009054906101000a900473ffffffffffffffffffffffffffffffffffffffff1673ffffffffffffffffffffffffffffffffffffffff166108fc839081150290604051600060405180830381858888f19350505050158015610825573d6000803e3d6000fd5b508080600101915050610774565b5060026000600354815260200190815260200160002060008481526020019081526020016000206040518082805480156108c257602002820191906000526020600020905b8160009054906101000a900473ffffffffffffffffffffffffffffffffffffffff1673ffffffffffffffffffffffffffffffffffffffff1681526020019060010190808311610878575b505091505060405180910390207f413cf1e17d70833c017de9b3c64d0104e3e37a7191d95b3d0d6276de992a0b4d826040518082815260200191505060405180910390a2505b600160036000828254019250508190555050505050565b60035481565b6000816040516020018082805190602001908083835b602083101515610960578051825260208201915060208101905060208303925061093b565b6001836020036101000a038019825116818451168082178552505050505050905001915050604051602081830303815290604052805190602001209050919050565b6060600160006003548152602001908152602001600020805480602002602001604051908101604052809291908181526020018280548015610a3957602002820191906000526020600020905b8160009054906101000a900473ffffffffffffffffffffffffffffffffffffffff1673ffffffffffffffffffffffffffffffffffffffff16815260200190600101908083116109ef575b5050505050905090565b60006060600460009054906101000a900460ff1660ff16604051908082528060200260200182016040528015610a885781602001602082028038833980820191505090505b50905060008090505b60068160ff161015610ad55760018101828260ff16815181101515610ab257fe5b9060200190602002019060ff16908160ff16815250508080600101915050610a91565b50606060008090505b600460009054906101000a900460ff1660ff168160ff161015610b3157610b2282848360ff16815181101515610b1057fe5b9060200190602002015160ff16610d1a565b91508080600101915050610ade565b506000816040516020018082805190602001908083835b602083101515610b6d5780518252602082019150602081019050602083039250610b48565b6001836020036101000a03801982511681845116808217855250505050505090500191505060405160208183030381529060405280519060200120905080935050505090565b606060007fc888c9ce9e098d5864d3ded6ebcc140a12142263bace3a23a36f9905f12bd64a60010290506002600060035481526020019081526020016000206000828152602001908152602001600020805480602002602001604051908101604052809291908181526020018280548015610c8357602002820191906000526020600020905b8160009054906101000a900473ffffffffffffffffffffffffffffffffffffffff1673ffffffffffffffffffffffffffffffffffffffff1681526020019060010190808311610c39575b505050505091505090565b6000807fc888c9ce9e098d5864d3ded6ebcc140a12142263bace3a23a36f9905f12bd64a6001029050600060026000600354815260200190815260200160002060008381526020019081526020016000208054905090506000811415610cf957600192505050610d17565b600081610d046103a5565b811515610d0d57fe5b0490508093505050505b90565b60606000606490506060816040519080825280601f01601f191660200182016040528015610d575781602001600182028038833980820191505090505b50905060008090505b600085141515610dfa576000600a86811515610d7857fe5b069050600a86811515610d8757fe5b049550806030017f0100000000000000000000000000000000000000000000000000000000000000028383806001019450815181101515610dc457fe5b9060200101907effffffffffffffffffffffffffffffffffffffffffffffffffffffffffffff1916908160001a90535050610d60565b60608690506060828251016040519080825280601f01601f191660200182016040528015610e375781602001600182028038833980820191505090505b50905060008090505b8251811015610eed578281815181101515610e5757fe5b9060200101517f010000000000000000000000000000000000000000000000000000000000000090047f0100000000000000000000000000000000000000000000000000000000000000028282815181101515610eb057fe5b9060200101907effffffffffffffffffffffffffffffffffffffffffffffffffffffffffffff1916908160001a9053508080600101915050610e40565b600090505b83811015610fa65784816001860303815181101515610f0d57fe5b9060200101517f010000000000000000000000000000000000000000000000000000000000000090047f0100000000000000000000000000000000000000000000000000000000000000028284518301815181101515610f6957fe5b9060200101907effffffffffffffffffffffffffffffffffffffffffffffffffffffffffffff1916908160001a9053508080600101915050610ef2565b8196508696505050505050509291505056fea165627a7a72305820b9348c3b996770045c52aabb6bacbc29f3580726f9632589316026dc28b83a250029",
  "source": "pragma solidity ^0.5.0;\r\n\r\n// import \"@openzeppelin/contracts/math/SafeMath.sol\";\r\n\r\ncontract Lottery {\r\n    // using SafeMath for uint256;\r\n\r\n    address public manager;\r\n    mapping(uint256 => address[]) players;\r\n    mapping(uint256 => mapping(bytes32 => address payable[])) lotteryEntries;\r\n    uint256 public extractionNo;\r\n    uint8 private nrOfNumbers;\r\n    uint8 private limit;\r\n\r\n    // uint256 public accumulatedPrize;\r\n\r\n    function test_getKacAbiEncode(string memory input)\r\n        public\r\n        pure\r\n        returns (bytes32)\r\n    {\r\n        return keccak256(abi.encodePacked(input));\r\n    }\r\n\r\n    function test_getWinnerHash() public view returns (bytes32) {\r\n        uint8[] memory numbers = new uint8[](nrOfNumbers);\r\n        for (uint8 index = 0; index < 6; index++) {\r\n            numbers[index] = index + 1;\r\n        }\r\n        string memory numbersConcatenated;\r\n        for (uint8 i = 0; i < nrOfNumbers; i++) {\r\n            numbersConcatenated = appendUintToString(\r\n                numbersConcatenated,\r\n                numbers[i]\r\n            );\r\n        }\r\n        bytes32 winningHash = keccak256(abi.encodePacked(numbersConcatenated));\r\n        return winningHash;\r\n    }\r\n\r\n    function test_getAmountWinnedByEveryPlayer() public view returns (uint256) {\r\n        bytes32 winningHash =\r\n            0xc888c9ce9e098d5864d3ded6ebcc140a12142263bace3a23a36f9905f12bd64a;\r\n        uint256 numberOfWinners =\r\n            lotteryEntries[extractionNo][winningHash].length;\r\n\r\n        // uint256 amountWinByEveryParticipant =\r\n        // SafeMath.div(accumulatedPrize, numberOfWinners);\r\n        if (numberOfWinners == 0) return 1;\r\n\r\n        uint256 amountWinByEveryParticipant = getBalance() / numberOfWinners;\r\n\r\n        return amountWinByEveryParticipant;\r\n    }\r\n\r\n    function getLotteryEntries()\r\n        public\r\n        view\r\n        returns (address payable[] memory)\r\n    {\r\n        bytes32 x =\r\n            0xc888c9ce9e098d5864d3ded6ebcc140a12142263bace3a23a36f9905f12bd64a;\r\n        return lotteryEntries[extractionNo][x];\r\n    }\r\n\r\n    constructor() public {\r\n        manager = msg.sender;\r\n        extractionNo = 0;\r\n        nrOfNumbers = 6;\r\n        limit = 49;\r\n        // accumulatedPrize = 0;\r\n    }\r\n\r\n    function enter(bytes32 entryHash) public payable {\r\n        require(msg.value >= 0.01 ether);\r\n        players[extractionNo].push(msg.sender);\r\n        lotteryEntries[extractionNo][entryHash].push(msg.sender);\r\n    }\r\n\r\n    function random(uint256 seed) private view returns (uint256) {\r\n        return\r\n            uint256(keccak256(abi.encodePacked(block.difficulty, now, seed)));\r\n    }\r\n\r\n    function quickSort(\r\n        uint8[] memory arr,\r\n        int256 left,\r\n        int256 right\r\n    ) private pure {\r\n        int256 i = left;\r\n        int256 j = right;\r\n        if (i == j) return;\r\n        uint256 pivot = arr[uint256(left + (right - left) / 2)];\r\n        while (i <= j) {\r\n            while (arr[uint256(i)] < pivot) i++;\r\n            while (pivot < arr[uint256(j)]) j--;\r\n            if (i <= j) {\r\n                (arr[uint256(i)], arr[uint256(j)]) = (\r\n                    arr[uint256(j)],\r\n                    arr[uint256(i)]\r\n                );\r\n                i++;\r\n                j--;\r\n            }\r\n        }\r\n        if (left < j) quickSort(arr, left, j);\r\n        if (i < right) quickSort(arr, i, right);\r\n    }\r\n\r\n    function getWinnerNumbers() private view returns (uint8[] memory) {\r\n        bool[] memory alreadyPicked = new bool[](50);\r\n        for (uint8 i = 0; i < limit; i++) {\r\n            alreadyPicked[i] = false;\r\n        }\r\n        uint256 initialSeed = now;\r\n        uint8[] memory winnerNumbers = new uint8[](nrOfNumbers);\r\n\r\n        uint8 temp = uint8((random(initialSeed) % limit) + 1);\r\n        alreadyPicked[temp] = true;\r\n        winnerNumbers[0] = temp;\r\n        for (uint8 i = 1; i < nrOfNumbers; i++) {\r\n            while (alreadyPicked[temp] == true) {\r\n                temp = uint8((random(winnerNumbers[i - 1]) % limit) + 1);\r\n            }\r\n\r\n            winnerNumbers[i] = uint8(\r\n                (random(winnerNumbers[i - 1]) % limit) + 1\r\n            );\r\n            alreadyPicked[temp] = true;\r\n        }\r\n\r\n        quickSort(winnerNumbers, 0, int256(winnerNumbers.length - 1));\r\n\r\n        return winnerNumbers;\r\n    }\r\n\r\n    function appendUintToString(string memory inStr, uint256 v)\r\n        private\r\n        pure\r\n        returns (string memory str)\r\n    {\r\n        uint256 maxlength = 100;\r\n        bytes memory reversed = new bytes(maxlength);\r\n        uint256 i = 0;\r\n        while (v != 0) {\r\n            uint256 remainder = v % 10;\r\n            v = v / 10;\r\n            reversed[i++] = bytes1(uint8(48 + remainder));\r\n        }\r\n        bytes memory inStrb = bytes(inStr);\r\n        bytes memory s = new bytes(inStrb.length + i);\r\n        uint256 j;\r\n        for (j = 0; j < inStrb.length; j++) {\r\n            s[j] = inStrb[j];\r\n        }\r\n        for (j = 0; j < i; j++) {\r\n            s[j + inStrb.length] = reversed[i - 1 - j];\r\n        }\r\n        str = string(s);\r\n        return str;\r\n    }\r\n\r\n    function pickWinner() public restricted {\r\n        // for testing purposes\r\n        uint8[] memory numbers = new uint8[](nrOfNumbers);\r\n        for (uint8 index = 0; index < 6; index++) {\r\n            numbers[index] = index + 1;\r\n        }\r\n\r\n        // uint8[] memory numbers = getWinnerNumbers();\r\n        string memory numbersConcatenated;\r\n        for (uint8 i = 0; i < nrOfNumbers; i++) {\r\n            numbersConcatenated = appendUintToString(\r\n                numbersConcatenated,\r\n                numbers[i]\r\n            );\r\n        }\r\n        bytes32 winningHash = keccak256(abi.encodePacked(numbersConcatenated));\r\n        uint256 numberOfWinners =\r\n            lotteryEntries[extractionNo][winningHash].length;\r\n        if (numberOfWinners > 0) {\r\n            // uint256 amountWinByEveryParticipant =\r\n            // SafeMath.div(accumulatedPrize, numberOfWinners);\r\n            uint256 amountWinByEveryParticipant =\r\n                getBalance() / numberOfWinners;\r\n            for (uint8 i = 0; i < numberOfWinners; i++) {\r\n                lotteryEntries[extractionNo][winningHash][i].transfer(\r\n                    amountWinByEveryParticipant\r\n                );\r\n            }\r\n            emit Winners(\r\n                lotteryEntries[extractionNo][winningHash],\r\n                amountWinByEveryParticipant\r\n            );\r\n        }\r\n        extractionNo += 1;\r\n    }\r\n\r\n    modifier restricted() {\r\n        require(msg.sender == manager);\r\n        _;\r\n    }\r\n\r\n    function getPlayers() public view returns (address[] memory) {\r\n        return players[extractionNo];\r\n    }\r\n\r\n    function getBalance() public view restricted returns (uint256) {\r\n        return address(this).balance;\r\n    }\r\n\r\n    event Winners(address payable[] indexed, uint256);\r\n}\r\n",
  "sourcePath": "D:/Facultate/Facultate An 3/Semestrul 2/Blockchain/Proiect/contracts/Lottery.sol",
  "compiler": {
    "name": "solc",
    "version": "0.5.0+commit.1d4f565a.Emscripten.clang"
  },
  "schemaVersion": "3.4.1",
  "updatedAt": "2021-05-13T21:30:59.803Z",
  "networkType": "ethereum",
  "devdoc": {
    "methods": {}
  },
  "userdoc": {
    "methods": {}
  }
}